:100000000C945D000C9485000C9485000C94850084
:100010000C9485000C9485000C9485000C9485004C
:100020000C9485000C9485000C9485000C9485003C
:100030000C9485000C9485000C9485000C9485002C
:100040000C941E020C9485000C948E020C94680291
:100050000C9485000C9485000C9485000C9485000C
:100060000C9485000C94850000000008000201003B
:100070000003040700000000000000000000000072
:10008000250028002B0000000000240027002A0083
:10009000040404040404040402020202020203032E
:1000A0000303030301020408102040800102040836
:1000B0001020010204081020C50411241FBECFEF38
:1000C000D8E0DEBFCDBF11E0A0E0B1E0E4EFF9E0A1
:1000D00002C005900D92A633B107D9F721E0A6E33F
:1000E000B1E001C01D92AE3DB207E1F710E0CDE5F1
:1000F000D0E004C02197FE010E94F204CC35D10764
:10010000C9F70E94C0020C94F8040C94000090E01F
:10011000FC01EC55FF4F249180579F4FFC018491C7
:10012000882399F090E0880F991FFC01EA57FF4F50
:10013000A591B491FC01E458FF4F859194918FB73C
:10014000F894EC91E22BEC938FBF0895AF92BF929D
:10015000CF92DF92EF92FF920F931F93CF93DF9393
:100160006C017B018B01040F151FEB015E01AE18C2
:10017000BF08C017D10759F06991D601ED91FC91E4
:100180000190F081E02DC6010995892B79F7C50111
:10019000DF91CF911F910F91FF90EF90DF90CF9063
:1001A000BF90AF900895FC01538D448D252F30E012
:1001B000842F90E0821B930B541710F0CF96089574
:1001C00001970895FC01918D828D981761F0A28DA1
:1001D000AE0FBF2FB11D5D968C91928D9F5F9F7367
:1001E000928F90E008958FEF9FEF0895FC01918D1D
:1001F000828D981731F0828DE80FF11D858D90E08A
:1002000008958FEF9FEF0895FC01918D228D892F26
:1002100090E0805C9F4F821B91098F73992708950E
:1002200086E391E00E94040121E0892B09F420E09B
:10023000822F089580E090E0892B29F00E94100120
:1002400081110C9400000895FC01A48DA80FB92F12
:10025000B11DA35ABF4F2C91848D90E001968F73EE
:100260009927848FA689B7892C93A089B1898C910D
:10027000837080648C93938D848D981306C002885C
:10028000F389E02D80818F7D80830895EF92FF9226
:100290000F931F93CF93DF93EC0181E0888F9B8DA9
:1002A0008C8D98131AC0E889F989808185FF15C063
:1002B0009FB7F894EE89FF896083E889F989808186
:1002C0008370806480839FBF81E090E0DF91CF9155
:1002D0001F910F91FF90EF900895F62E0B8D10E077
:1002E0000F5F1F4F0F731127E02E8C8D8E110CC0E6
:1002F0000FB607FCFACFE889F989808185FFF5CF31
:10030000CE010E942401F1CFEB8DEC0FFD2FF11DEA
:10031000E35AFF4FF0829FB7F8940B8FEA89FB896D
:1003200080818062CFCFCF93DF93EC01888D8823CB
:10033000B9F0AA89BB89E889F9898C9185FD03C048
:10034000808186FD0DC00FB607FCF7CF8C9185FF2D
:10035000F2CF808185FFEDCFCE010E942401E9CF4D
:10036000DF91CF91089590E0FC01E859FF4F24916F
:10037000FC01EC55FF4F3491FC01E057FF4FE49135
:10038000EE23C9F0222339F0233001F1A8F4213003
:1003900019F1223029F1F0E0EE0FFF1FE458FF4F72
:1003A000A591B4918FB7F894EC91611126C0309566
:1003B0003E233C938FBF08952730A9F02830C9F021
:1003C000243049F7809180008F7D03C080918000A8
:1003D0008F7780938000DFCF84B58F7784BDDBCFAC
:1003E00084B58F7DFBCF8091B0008F778093B00074
:1003F000D2CF8091B0008F7DF9CF3E2BDACF0F9313
:100400001F93CF93DF93082F162FD42FC8E06D2FA3
:10041000661F6627661F802F0E94B301DD0F61E013
:10042000812F0E94B30160E0812F0E94B301C1506F
:1004300071F7DF91CF911F910F9108951F920F9245
:100440000FB60F9211242F933F938F939F93AF93E7
:10045000BF938091DA019091DB01A091DC01B09112
:10046000DD013091D90123E0230F2D3758F5019696
:10047000A11DB11D2093D9018093DA019093DB0176
:10048000A093DC01B093DD018091D5019091D6015C
:10049000A091D701B091D8010196A11DB11D809303
:1004A000D5019093D601A093D701B093D801BF9105
:1004B000AF919F918F913F912F910F900FBE0F9011
:1004C0001F90189526E8230F0296A11DB11DD2CFCB
:1004D0001F920F920FB60F9211242F933F934F93B9
:1004E0005F936F937F938F939F93AF93BF93EF939C
:1004F000FF9386E391E00E942401FF91EF91BF9169
:10050000AF919F918F917F916F915F914F913F91AB
:100510002F910F900FBE0F901F9018951F920F9262
:100520000FB60F9211242F938F939F93EF93FF9306
:10053000E0914601F09147018081E0914C01F091FA
:100540004D0182FD1BC0908180914F018F5F8F73A1
:1005500020915001821741F0E0914F01F0E0EA5CF8
:10056000FE4F958F80934F01FF91EF919F918F9157
:100570002F910F900FBE0F901F9018958081F4CF90
:10058000789484B5826084BD84B5816084BD85B56E
:10059000826085BD85B5816085BD80916E0081607A
:1005A00080936E0010928100809181008260809320
:1005B0008100809181008160809381008091800022
:1005C0008160809380008091B10084608093B1004D
:1005D0008091B00081608093B00080917A00846047
:1005E00080937A0080917A00826080937A00809173
:1005F0007A00816080937A0080917A00806880938D
:100600007A001092C100E0914601F091470182E02A
:100610008083E0914201F09143011082E091440116
:10062000F09145018FEC808310924E01E0914A01D8
:10063000F0914B0186E08083E0914801F0914901FF
:10064000808180618083E0914801F091490180813F
:1006500088608083E0914801F09149018081806841
:100660008083E0914801F091490180818F7D8083F2
:1006700084E00E94870083E00E94870082E00E945D
:10068000870088E00E94870089E00E9487008AE056
:100690000E94870087E00E94870086E00E94870012
:1006A00085E00E9487008BE00E9487008CE00E941A
:1006B00087008DE00E94870050E0852E50E0952E47
:1006C00048E1E42E41E0F42E0AE211E0D0E0C0E07F
:1006D000C630D1050CF04AC01092D4011092D3015B
:1006E000C090D301D090D40128EBC2162BE0D206E3
:1006F0000CF035C161E082E00E94B30160E084E06B
:100700000E94B30160E083E00E94B30160E088E0F2
:100710000E94B301F801408169E08AE00E94FF0174
:1007200061E088E00E94B30160E085E00E94B301CF
:1007300061E087E00E94B30160E086E00E94B301BF
:1007400060E08BE00E94B301F70140816CE08DE036
:100750000E94FF0161E08BE00E94B301FFEFCF1A1E
:10076000DF0AD092D401C092D301BACFCE0106974E
:10077000039708F051C01092D4011092D301CE011A
:10078000880F991F9C012A5F3E4F6901A090D301F9
:10079000B090D40138EBA3163BE0B3060CF0DFC0F9
:1007A00060E082E00E94B30160E084E00E94B30157
:1007B00061E083E00E94B30160E088E00E94B30141
:1007C000F6017080472D69E08AE00E94FF0161E038
:1007D00088E00E94B30160E085E00E94B30161E01F
:1007E00087E00E94B30160E086E00E94B30160E010
:1007F0008BE00E94B301472D6CE08DE00E94FF0169
:1008000061E08BE00E94B301FFEFAF1ABF0AB09224
:10081000D401A092D301BACFCE0109971092D4018E
:100820001092D301069708F04EC0570122E1A21A98
:10083000B108680132E1C31AD1086090D301709009
:10084000D40188EB68168BE078060CF088C060E075
:1008500082E00E94B30161E084E00E94B30160E0A5
:1008600083E00E94B30160E088E00E94B301F501DB
:10087000408169E08AE00E94FF0161E088E00E9417
:10088000B30161E085E00E94B30160E087E00E946F
:10089000B30160E086E00E94B30160E08BE00E945B
:1008A000B301F60140816CE08DE00E94FF0161E040
:1008B0008BE00E94B301FFEF6F1A7F0A7092D401A0
:1008C0006092D301BACFCE01880F991F9C012C50A2
:1008D0003F4F6901A090D301B090D40138EBA3162B
:1008E0003BE0B306E4F560E082E00E94B30161E022
:1008F00084E00E94B30160E083E00E94B30160E005
:1009000088E00E94B301F6017080472D69E08AE01B
:100910000E94FF0161E088E00E94B30160E085E091
:100920000E94B30160E087E00E94B30161E086E0CD
:100930000E94B30160E08BE00E94B301472D6CE0A0
:100940008DE00E94FF0161E08BE00E94B301FFEFA8
:10095000AF1ABF0AB092D401A092D301BBCF2196A7
:1009600022E0E20EF11C0E5F1F4FC231D10509F0EB
:10097000AFCE8114910409F4A3CE0E941001882304
:1009800009F49ECE0E9400009BCEE6E3F1E01382C4
:10099000128288EE93E0A0E0B0E084839583A68382
:1009A000B78384E091E09183808385EC90E0958724
:1009B000848784EC90E09787868780EC90E0918B29
:1009C000808B81EC90E0938B828B82EC90E0958B16
:1009D000848B86EC90E0978B868B118E128E138E13
:1009E000148E0895EE0FFF1F0590F491E02D0994E9
:0409F000F894FFCFA9
:1009F400000000004601A600D30093010401E200B8
:100A0400F600B000A400F90090008000F800820015
:100A140092009900B000A400F900820092009900AD
:060A2400B000A400F9007F
:00000001FF
